:020000020000FC
:100000000AE00EBF0FEF0DBF70D0CED089E101D155
:10001000000084D0D7D0182F1F7307E2109F09E08B
:100020008894010913E0109F002DA0E0B1E080E169
:100030008D930A95E9F7ABE1B1E0D7D08695182FFB
:1000400000E210171AF100E6101732F500E410175D
:1000500072F000E48894100B110F1D93182F119566
:1000600000E6100F110F1D9300E00D931AC000E081
:100070000D93182F00E28894100B110F1D93182F69
:10008000119500E4100F110F1D930BC000E00D93AC
:100090000D9300E40D9305C000E40D9300E00D9373
:1000A0000D934CD089E1B5D0B4CFAACF8FE360E0F7
:1000B00040E05AD080E06FE340E056D080E060E05E
:1000C0004FE352D082E3A5D0A4CF9ACF30000030C6
:1000D0001000202000103000003010002020001000
:1000E00030000030100020200010FF93EF93BF93EA
:1000F000AF938F930F932898209AA0E0B1E0ECEC97
:10010000F0E08EE105910D938A95E1F717D00F91FC
:100110008F91AF91BF91EF91FF910895BF93AF93EE
:100120008F930F93A0E0B1E08EE100E01D928A95DD
:10013000E9F70F918F91AF91BF910895BF93AF935E
:100140008F936F934F930F930AE0A0E0B1E08D91EE
:100150006D914D9109D00A95D1F70F914F916F9103
:100160008F91AF91BF9108958F937F936F935F931A
:100170004F930AD0682F08D0642F06D04F915F911B
:100180006F917F918F91089578E0289A661F28F0EB
:10019000289851E05A95F1F704C052E05A95F1F7CA
:1001A00028987A9591F708950F9306E900937A00BD
:1001B00000EE00937C0001E800937E0000931100A4
:1001C0000F9108950F9300917C00007E00937C00B6
:1001D00000917A00006500937A0000917A00007126
:1001E000E1F3809179000F9108950F9300917C00C5
:1001F000007E076000937C0000917A000065009308
:100200007A0000917A000071E1F3809179000F91FA
:1002100008958F932F931F931FEF2FEF2A95F1F7D8
:100220001A95D9F78A95C1F71F912F918F9108954B
:00000001FF
