:100000000C9456000C9462000C9462000C946200F4
:100010000C9462000C9462000C9462000C946200D8
:100020000C9462000C9462000C9462000C946200C8
:100030000C9462000C9462000C9462000C946200B8
:100040000C9462000C9462000C9462000C946200A8
:100050000C9462000C9462000C9462000C94620098
:100060000C9462000C9462000C9462000C94620088
:100070000C9462000C9462000C9462000C94620078
:100080000C9462000C9462000C9462000C94620068
:100090000C9462000C9462000C9462000C94620058
:1000A0000C9462000C9462000C94620011241FBE38
:1000B000CFEFDAE0DEBFCDBF0E9464000C94600099
:0400C000F894FFCFE2
:0400C4000C94000098
:0200C800FFCF68
:00000001FF
