:100000000C9459000C9464010C9464010C946401E8
:100010000C9464010C9464010C9464010C946401CC
:100020000C9464010C9464010C9464010C946401BC
:100030000C9464010C9464010C9464010C946401AC
:100040000C9464010C9464010C9464010C9464019C
:100050000C9464010C9464010C9464010C9464018C
:100060000C9464010C9464010C9464010C9464017C
:100070000C9464010C9464010C9464010C9464016C
:100080000C9464010C9464010C9464010C9464015C
:100090000C9464010C9464010C9464010C9464014C
:1000A0000C9464010C9464010C9464010100011E21
:1000B000800011241FBECFEFDAE0DEBFCDBFECEA37
:1000C000F0E040E017C0B591A591359125910591DB
:1000D00007FD0CC095918591EF01F92FE82F059050
:1000E0000D92A217B307D9F7FE0104C01D92A21703
:1000F000B307E1F7E13BF40731F70E943B010C94B1
:060100008100F894FFCF1E
:10010600FF920F931F93CF93DF93082FF62E142F92
:10011600C7E0D0E01EC08F2D90E00C2E02C0959552
:1001260087950A94E2F780FF0AC085B1816085B998
:1001360080EA90E00E945A0185B115B809C085B1E0
:10014600816085B985B115B880E190E00E945A01B9
:100156002197DD2304F7C7E0D0E01EC0802F90E092
:100166000C2E02C0959587950A94E2F780FF0AC087
:1001760085B1816085B980EA90E00E945A0185B117
:1001860015B809C085B1816085B985B115B880E11A
:1001960090E00E945A012197DD2304F7C7E0D0E0E2
:1001A6001EC0812F90E00C2E02C0959587950A946B
:1001B600E2F780FF0AC085B1816085B980EA90E0E8
:1001C6000E945A0185B115B809C085B1816085B90B
:1001D60085B115B880E190E00E945A012197DD2390
:0E01E60004F7DF91CF911F910F91FF900895C4
:1001F40084B1816084B985B115B8E0E0F1E020E311
:1002040020831286148A218380E18387158A90E2F1
:1002140092839487168A83832587178A1482268774
:10022400808F15829787918F1682808B228F1782F9
:10023400118A238F8087128A948F9187138A858FDE
:060244000E94250108954F
:10024A00CF93DF93C9E0D0E00CC0FE01E050FF4F2E
:10025A0044896285808150E070E090E00E948300CA
:0C026A002197DD2394F7DF91CF910895D8
:100276000E94FA000E944C01E0E0F1E080E48287EF
:10028600148A168E0E9425018FEF90E00E945A0173
:02029600F1CFA6
:1002980080E090E007C0FC01E050FF4F108212861A
:0C02A800148A01968A309105B4F3089581
:1002B400819586BD81E085BDA89BFECF15BC81E0FC
:0402C40085BB089559
:0402C8000C94000092
:00000001FF
