:100000000C945A000C942F010C942F010C942F0186
:100010000C942F010C942F010C942F010C942F01A0
:100020000C942F010C942F010C942F010C942F0190
:100030000C942F010C942F010C942F010C942F0180
:100040000C942F010C942F010C942F010C942F0170
:100050000C942F010C942F010C942F010C942F0160
:100060000C942F010C942F010C942F010C942F0150
:100070000C942F010C942F010C942F010C942F0140
:100080000C942F010C942F010C942F010C942F0130
:100090000C942F010C942F010C942F010C942F0120
:1000A0000C942F010C942F010C942F010100011EC0
:1000B0000002620011241FBECFEFDAE0DEBFCDBF29
:1000C000ECEAF0E040E017C0B591A591359125919B
:1000D000059107FD0CC095918591EF01F92FE82F4F
:1000E00005900D92A217B307D9F7FE0104C01D9227
:1000F000A217B307E1F7E33BF40731F70E94EA00E8
:080100000C948200F894FFCF7B
:1001080027E030E01DC0E62FF0E0022E02C0F59592
:10011800E7950A94E2F7E0FF09C095B1916095B9B7
:1001280000000000000095B115B808C095B19160B5
:1001380095B995B115B800000000000021503109AB
:1001480033230CF727E030E01DC0682F70E0022E43
:1001580002C0759567950A94E2F760FF09C095B1EA
:10016800916095B900000000000095B115B808C06D
:1001780095B1916095B995B115B8000000000000DF
:100188002150310933230CF787E090E01CC0242F5D
:1001980030E0082E02C0359527950A94E2F720FF33
:1001A80009C025B1216025B900000000000025B173
:1001B80015B808C025B1216025B925B115B80000CA
:0C01C800000000000197992314F708952F
:1001D4000E9427010E94190180E090E008C0FC0100
:1001E400E050FF4F108220E22287148A0196853066
:1001F4009105ACF3E0E0F1E08CE0818784E3838B4C
:08020400158E0E940601E6CFF1
:10020C00CF93DF93C9E0D0E009C0FE01E050FF4F6F
:10021C004489628580810E9484002197DD23ACF79C
:06022C00DF91CF9108955F
:1002320080E090E007C0FC01E050FF4F1082128680
:0C024200148A01968A309105B4F30895E7
:10024E0084B1816084B985B115B80E940601089504
:04025E000C940000FC
:10026200303020100000000010200010203030201C
:0E0272001000000000000000102030302010AE
:00000001FF
