:100000000C9459000C9446010C9446010C94460142
:100010000C9446010C9446010C9446010C94460144
:100020000C9446010C9446010C9446010C94460134
:100030000C9446010C9446010C9446010C94460124
:100040000C9446010C9446010C9446010C94460114
:100050000C9446010C9446010C9446010C94460104
:100060000C9446010C9446010C9446010C944601F4
:100070000C9446010C9446010C9446010C944601E4
:100080000C9446010C9446010C9446010C944601D4
:100090000C9446010C9446010C9446010C944601C4
:1000A0000C9446010C9446010C9446010100011E7B
:1000B000800011241FBECFEFDAE0DEBFCDBFECEA37
:1000C000F0E040E017C0B591A591359125910591DB
:1000D00007FD0CC095918591EF01F92FE82F059050
:1000E0000D92A217B307D9F7FE0104C01D92A21703
:1000F000B307E1F7E13BF40731F70E9439010C94B3
:060100008100F894FFCF1E
:1001060027E030E01DC0E62FF0E0022E02C0F59594
:10011600E7950A94E2F7E0FF09C095B1916095B9B9
:1001260000000000000095B115B808C095B19160B7
:1001360095B995B115B800000000000021503109AD
:1001460033230CF727E030E01DC0682F70E0022E45
:1001560002C0759567950A94E2F760FF09C095B1EC
:10016600916095B900000000000095B115B808C06F
:1001760095B1916095B995B115B8000000000000E1
:100186002150310933230CF787E090E01CC0242F5F
:1001960030E0082E02C0359527950A94E2F720FF35
:1001A60009C025B1216025B900000000000025B175
:1001B60015B808C025B1216025B925B115B80000CC
:0C01C600000000000197992314F7089531
:1001D20084B1816084B985B115B8E0E0F1E020E333
:1001E20020831286148A218380E18387158A90E214
:1001F20092839487168A83832587178A1482268797
:10020200808F15829787918F1682808B228F17821B
:10021200118A238F8087128A948F9187138A858F00
:060222000E941401089582
:10022800CF93DF93C0E0D0E00CC0FE01E050FF4F59
:1002380044896285808150E070E090E00E948300EC
:0E0248002196C930D1058CF3DF91CF91089536
:1002560080E090E007C0FC01E050FF4F108212865C
:0C026600148A01968A309105B4F30895C3
:100272000E94E9000E942B01E0E0F1E080E3858327
:0A028200118E17860E941401F5CFBB
:04028C000C940000CE
:00000001FF
