:100000000C9456000C9468000C9468000C946800E2
:100010000C9468000C9468000C9468000C946800C0
:100020000C9468000C9468000C9468000C946800B0
:100030000C9468000C9468000C9468000C946800A0
:100040000C9468000C9468000C9468000C94680090
:100050000C9468000C9468000C9468000C94680080
:100060000C9468000C9468000C9468000C94680070
:100070000C9468000C9468000C9468000C94680060
:100080000C9468000C9468000C9468000C94680050
:100090000C9468000C9468000C9468000C94680040
:1000A0000C9468000C9468000C94680011241FBE26
:1000B000CFEFDAE0DEBFCDBF21E0A0E0B1E001C0CC
:1000C0001D92AC33B207E1F70E942A010C94A501FE
:1000D0000C94000087B1806487B981E086BD85E01B
:1000E00085BD0AC08FEC97E00197F1F700C00000D2
:1000F00098B180E4892788B9A89BF4CF15BC81E02A
:1001000085BB089520E030E011C0F901EE0FFF1F1C
:10011000E20FF31FEE0FFF1FE050FF4F918380832C
:1001200073836283558344832F5F3F4F2A303105A9
:1001300064F3089580E090E088C0FC01EE0FFF1F9B
:10014000E80FF91FEE0FFF1FE050FF4F4281538170
:10015000022E02C0569547950A94E2F740FF0AC066
:1001600045B1416045B900000000000045B14E7F37
:1001700045B909C045B1416045B945B14E7F45B962
:100180000000000000002150310902C027E030E0EB
:1001900033239CF627E030E028C0FC01EE0FFF1F60
:1001A000E80FF91FEE0FFF1FE050FF4F4081518114
:1001B000022E02C0569547950A94E2F740FF0AC006
:1001C00045B1416045B900000000000045B14E7FD7
:1001D00045B909C045B1416045B945B14E7F45B902
:1001E000000000000000215031093323B4F627E05D
:1001F00030E028C0FC01EE0FFF1FE80FF91FEE0FE3
:10020000FF1FE050FF4F44815581022E02C05695DA
:1002100047950A94E2F740FF0AC045B1416045B9ED
:1002200000000000000045B14E7F45B909C045B14E
:10023000416045B945B14E7F45B90000000000005E
:10024000215031093323B4F601968A3091050CF41C
:100250009DCF089584B1816084B940E050E060E0B2
:1002600070E080E090E00E9482000E949A008CE0A2
:100270008093850084E28093840084E080938100F1
:1002800000E010E032C080ED8093950084ED809313
:10029000940083E08093910017C04C9B15C0C091DF
:1002A0008400D09185000E946A004C99FECF06C060
:1002B000D0938500C093840081E086BB4C9BF8CF2F
:1002C0000E946A004C99FECFC09BE7CF40E050E00F
:1002D00060E070E0C8010E9482000E949A00035F03
:1002E0001F4F1092910081E088BBB09BCCCF109241
:1002F000810081E086BB0E946A00C0E0D0E021C09E
:1003000040E050E060E070E080E090E00E94820019
:100310000E949A008FE295E70197F1F700C0000074
:1003200040E050E060E070E08FEF90E00E948200DB
:100330000E949A008FE295E70197F1F700C0000054
:0E0340002196CA30D105E4F292CFF894FFCF97
:00000001FF
