:100000000C9456000C9468000C9468000C946800E2
:100010000C9468000C9468000C9468000C946800C0
:100020000C9468000C9468000C9468000C946800B0
:100030000C9468000C9468000C9468000C946800A0
:100040000C9468000C9468000C9468000C94680090
:100050000C9468000C9468000C9468000C94680080
:100060000C9468000C9468000C9468000C94680070
:100070000C9468000C9468000C9468000C94680060
:100080000C9468000C9468000C9468000C94680050
:100090000C9468000C9468000C9468000C94680040
:1000A0000C9468000C9468000C94680011241FBE26
:1000B000CFEFDAE0DEBFCDBF21E0A0E0B1E001C0CC
:1000C0001D92AC33B207E1F70E9446010C94B901CE
:1000D0000C94000083E290E09093BF008093BE00F8
:1000E0001092BF0083E08093C100CA9BFECF84E0E2
:1000F00089BB089587B1806487B981E086BD85E0BA
:1001000085BD06C00E946A0098B180E4892788B93D
:10011000A89BF8CF15BC81E085BB089520E030E0B6
:1001200011C0F901EE0FFF1FE20FF31FEE0FFF1FCB
:10013000E050FF4F918380837383628355834483B0
:100140002F5F3F4F2A30310564F3089580E090E03F
:1001500088C0FC01EE0FFF1FE80FF91FEE0FFF1F15
:10016000E050FF4F42815381022E02C056954795C1
:100170000A94E2F740FF0AC045B1416045B900006A
:100180000000000045B14E7F45B909C045B141604E
:1001900045B945B14E7F45B900000000000021502F
:1001A000310902C027E030E033239CF627E030E03D
:1001B00028C0FC01EE0FFF1FE80FF91FEE0FFF1F15
:1001C000E050FF4F40815181022E02C05695479565
:1001D0000A94E2F740FF0AC045B1416045B900000A
:1001E0000000000045B14E7F45B909C045B14160EE
:1001F00045B945B14E7F45B90000000000002150CF
:1002000031093323B4F627E030E028C0FC01EE0FBB
:10021000FF1FE80FF91FEE0FFF1FE050FF4F448153
:100220005581022E02C0569547950A94E2F740FF89
:100230000AC045B1416045B900000000000045B169
:100240004E7F45B909C045B1416045B945B14E7FC2
:1002500045B9000000000000215031093323B4F6F5
:1002600001968A3091050CF49DCF089585E788BDED
:1002700016BC85B585E085BDAA9BFECF85B5887F78
:1002800085BD85B3826085BB16BC089584B181604D
:1002900084B940E050E060E070E080E090E00E94CF
:1002A0008E000E94A6008CE08093850084E28093FB
:1002B000840084E08093810000E010E032C080ED93
:1002C0008093950084ED8093940083E08093910067
:1002D00017C04C9B15C0C0918400D09185000E942E
:1002E0007A004C99FECF06C0D0938500C09384005D
:1002F00081E086BB4C9BF8CF0E947A004C99FECFE0
:10030000C09BE7CF40E050E060E070E0C8010E9491
:100310008E000E94A600035F1F4F1092910081E0A3
:1003200088BBB09BCCCF1092810081E086BB0E943D
:100330007A00C0E0D0E019C040E050E060E070E03A
:1003400080E090E00E948E000E94A6000E9436018C
:1003500040E050E060E070E08FEF90E00E948E009F
:100360000E94A6000E9436012196CA30D10524F3CE
:060370009ACFF894FFCFC4
:00000001FF
