:100000000C9456000C9460000C9460000C946000FA
:100010000C9460000C9460000C9460000C946000E0
:100020000C9460000C9460000C9460000C946000D0
:100030000C9460000C9460000C9460000C946000C0
:100040000C9460000C9460000C9460000C946000B0
:100050000C9460000C9460000C9460000C946000A0
:100060000C9460000C9460000C9460000C94600090
:100070000C9460000C9460000C9460000C94600080
:100080000C9460000C9460000C9460000C94600070
:100090000C9460000C9460000C9460000C94600060
:1000A0000C9460000C9460000C94600011241FBE3E
:1000B000CFEFDAE0DEBFCDBF0E947A000C94B4002F
:1000C0000C94000087B1806487B981E086BD85E02B
:1000D00085BD0AC08FEC97E00197F1F700C00000E2
:1000E00098B180E4892788B9A89BF4CF15BC81E03A
:1000F00085BB08958CE08093850084E28093840022
:1001000084E08093810027C080ED8093950084ED8A
:100110008093940083E08093910017C04C9B15C09E
:10012000C0918400D09185000E9462004C99FECF5E
:1001300006C0D0938500C093840081E086BB4C9BB1
:10014000F8CF0E9462004C99FECFC09BE7CF10927F
:10015000910081E088BBB09BD7CF1092810081E0F5
:0C01600086BB0E946200C6CFF894FFCF5F
:00000001FF
