S017000043704520333135302050726F6A20322E737265631F
S11300000C9456000C9460000C9460000C946000F6
S11300100C9460000C9460000C9460000C946000DC
S11300200C9460000C9460000C9460000C946000CC
S11300300C9460000C9460000C9460000C946000BC
S11300400C9460000C9460000C9460000C946000AC
S11300500C9460000C9460000C9460000C9460009C
S11300600C9460000C9460000C9460000C9460008C
S11300700C9460000C9460000C9460000C9460007C
S11300800C9460000C9460000C9460000C9460006C
S11300900C9460000C9460000C9460000C9460005C
S11300A00C9460000C9460000C94600011241FBE3A
S11300B0CFEFDAE0DEBFCDBF0E9486000C948D0046
S11300C00C94000081EC86BD83E085BDA89BFECF27
S11300D015BC81E085BB089587B1806487B98FE939
S11300E0809385008EEB8093840083E0809381006D
S11300F006C00E94620098B180E4892788B9B09B49
S1130100F8CF1092810081E086BB08954C9BFECF0E
S11101100E946C004C99FECFF9CFF894FFCFFB
S9030000FC
